:100000000C9450020C9497020C94B2020C94970238
:100010000C9497020C9497020C9497020C949702FC
:100020000C9497020C9497020C9497020C949702EC
:100030000C9497020C9497020C94EC180C94970271
:100040000C9497020C9497020C9497020C949702CC
:100050000C9497020C9497020C9497020C949702BC
:100060000C9497020C949702FE0404050C051205EB
:1000700036053E054E055E056005620564056605AC
:1000800068056A056E05E30EE30E150F150F620F86
:10009000800FA110A1108B0F201031103110911082
:1000A000A110A1109A1041114111531153114A117D
:1000B000531153115311411141114F115311531148
:1000C0004F112B0014001A000800150017001C0027
:1000D00018000C00120013002A002900040016006A
:1000E000070009000A000B000D000E000F0033008E
:1000F0003400E1001D001B0006001900050011007E
:1001000010003600370038002800E000E600E2006A
:10011000E30003512C002C00045150005100520008
:100120004F002B0014001A00090013000A000D00F4
:100130000F0018001C0033002A00290004001500DD
:100140001600170007000B00110008000C00120039
:100150003400E1001D001B000600190005000E0020
:1001600010003600370038002800E000E600E2000A
:10017000E30003512C002C000451500051005200A8
:100180004F002B0034003600370013001C0009001C
:100190000A00060015000F002A00290004001200C2
:1001A000080018000C0007000B00170011001600D3
:1001B0003800E100330014000D000E001B000500A4
:1001C00010001A0019001D002800E000E600E200FF
:1001D000E30003512C002C00045150005100520048
:1001E0004F0035021E021F022002210222022302BA
:1001F00024022502260227022A004C003A003B0076
:100200003C003D003E003F002D022E022F02300236
:10021000310201004000410042004300440045001B
:10022000320264024A004D00010001000100010099
:1002300001000100010001000100AB00AA00A900BB
:10024000AE0035001E001F00200021002200230008
:1002500024002500260027002A004C003A003B001D
:100260003C003D003E003F002D002E002F003000DE
:1002700031000100400041004200430044004500BD
:10028000320064004B004E0001000100010001003B
:1002900001000100010001000100AB00AA00A9005B
:1002A000AE001E001E001E001E001E001E001E00CE
:1002B0001E001E001E001E001E00000014001A007A
:1002C0000800150017001C0018000C001200130095
:1002D0002F00000004001600070009000A000B00B0
:1002E0000D000E000F00330034002D5D00000000F3
:1002F00006001900000000001100100000000000BE
:100300000000005C2E5D2F5D305D315D325D335D40
:10031000345D355D365D375D4C0001000100295CC0
:100320001D5C1E5C135C0A5C295D2A5D2B5D2C5DE7
:10033000010001002B5C2A5C265C275C2C5C2D5C98
:1003400000000000010001000100010001000100A7
:100350000100010001000100010001000100010095
:10036000010009023B00020100A032090400000163
:10037000030101000921010100012240000705815C
:100380000308000109040100010300000009210124
:1003900001000122810007058303080001120110FA
:1003A0000100000008C016DB27020001020301045F
:1003B00003300000000C0350006C00610069006411
:1003C000000000160364006D0039007200650063D0
:1003D000006F00720064007300000004030904054C
:1003E000010902A10185020901A1000509190129DC
:1003F000051500250195057501810295017503819B
:10040000030501093009311581257F9502750881A1
:100410000609381581257F950175088106050C0AA6
:1004200038021581257F950175088106C0C0050138
:100430000980A101850319012AB700150126B7001B
:10044000950175108100C0050C0901A101850419F1
:10045000012AA002150126A002950175108100C095
:1004600005010906A101050719E029E71500250185
:10047000950875018102950175088103050719002A
:1004800029FF150026FF009506750881000508194B
:10049000012905950575019102950175039103C028
:1004A00011241FBECFEFD8E0DEBFCDBF04B603FEE0
:1004B00027C080912B0390912C03A0912D03B09124
:1004C0002E038730904BA740B04BD1F410922B03F2
:1004D00010922C0310922D0310922E0314BE84B799
:1004E000877F84BF0FB6F894A895809160008861DB
:1004F00080936000109260000FBEE0E0F8E3099581
:1005000011E0A0E0B1E0E4EAF0E402C005900D9251
:10051000A03AB107D9F723E0A0EAB1E001C01D92EB
:10052000AB32B207E1F70E94F61B0C9450200C94FA
:100530000000A82FB92F80E090E041E050EA6095DC
:1005400030E009C02D9182279795879510F0842778
:100550009527305EC8F36F5FA8F30895EADF8D93A7
:100560009D930895CF93CFB7CF93DF93C3954B9BC4
:10057000E9F74B9B10C04B9B0EC04B9B0CC04B9B99
:100580000AC04B9B08C04B9B06C0C0910203C39599
:10059000C09302038EC06F93C0910103DD27C75F34
:1005A000DC4F2F9365E54B9B03C02F916F91E1CFFB
:1005B0000F931F934F9320E040E15F9309B10C70BC
:1005C00003FB27F93F9350E03BE039C01C704064C7
:1005D0002F77012F5F5F1EC0406819B11C702F7705
:1005E00052501FC0406409B12F770C70D1F15F5F8A
:1005F00000C023C0406219B12F771C7091F15F5F7A
:1006000000C025C00C701027515012F45D5F00002F
:10061000115027952C3F19B1C8F61C7001270150C5
:1006200027952C3FC8F64227499309B10C70102733
:100630004F73115027952C3FA8F64695469519B152
:100640001C7079F00127015027952C3F98F66B5AC2
:1006500060F3315009B1B0F600C012E01CBB0027B6
:100660001CC03B503195C31BD04012E01CBB08811D
:10067000033C21F10B3411F12091FE021981110F7D
:100680001213EDCF4A81441F093679F10D3211F072
:10069000013E29F74F7009F0042F009307033F91A3
:1006A0005F914F911F910F912F916F91CCB3C1FD2D
:1006B0005DCFDF91CF91CFBFCF91189520910703E8
:1006C000222369F310910503112309F049C0343046
:1006D0000AF448C0309305032093000310910103EE
:1006E0003BE0311B309301033DC000910503013015
:1006F000BCF50AE54F7049F43091190134FD33C05F
:1007000000931901CBEDD2E032C0433059F04430B0
:1007100091F03091E60234FD26C00093E602C7EE68
:10072000D2E025C030911F0334FD1DC000931F038C
:10073000C0E2D3E01CC03091F20234FD14C000933B
:10074000F202C3EFD2E013C0052710E000C00000A2
:100750000BB91AC0052710E0221F1DC010E021C0F0
:100760004AE502C032ED432FC4E1D0E032E01AB1D5
:100770001C605B9A0BB11AB95CE020E865E320FFCE
:1007800005270BB9279517951C3FF0F66695B8F726
:10079000B1F720FF05270BB9279517951C3FD0F619
:1007A0002795179517FF052700001C3F0BB9B0F6DA
:1007B00029913A9519F7037F10910603110FC6513D
:1007C000D0400BB911F01093FE0212E01CBB086080
:1007D0001AB1137F402F437F54E05A95F1F70BB9BC
:1007E0001AB94BB95CCF0C94BB080C94B9080C94A3
:1007F000D7040C948E063D9A3C9A0E94EB176093A6
:10080000C1027093C2028093C3029093C40261300C
:1008100009F4459A8091C202813009F4449A0895FE
:100820001092C1021092C2021092C3021092C4022E
:10083000E1ECF2E081E0808382E081836091C1029B
:100840007091C2028091C3029091C4020E94EF177E
:100850006091C1027091C2028091C3029091C40262
:100860000C94EF170F9306E024E043E00E94E305A9
:100870000F9108950F931F93CF93DF93D9016330A6
:10088000A1F1B0F4623009F08DC0E82FE295EF706D
:10089000F0E0B2968F7061E070E09B0102C0220F21
:1008A000331F8A95E2F7C9018095CAE1D1E00CC0F7
:1008B000643009F443C0653009F453C073C06991D2
:1008C00079916417750729F031E0CE32D307B9F773
:1008D00069C012969C911297992319F09081922BDE
:1008E00002C0908198239083EFCF12969C91992318
:1008F00009F458C0C82F0E94951F62E070E00E9462
:100900001B1F8C01019709F04DC00E94951FEC2F11
:10091000E295EF70CF70F0E080FD08C082A101C0C9
:10092000000FCA95EAF70095082306C082A101C00E
:10093000000FCA95EAF7082B02A334C012969C91C7
:10094000E82FE295EF708F70F0E042A121E030E0F7
:10095000B90102C0660F771F8A95E2F79923F1F07B
:1009600011C0E82FE295EF708F70F0E0483251052A
:1009700061F442A121E030E0B90102C0660F771FA7
:100980008A95E2F7CB01842B0CC042A121E030E034
:10099000B90102C0660F771F8A95E2F7CB018095F7
:1009A000842382A3DF91CF911F910F9108950F931C
:1009B0001F93CF93DF938C01EB016091C1028EEF07
:1009C000860F843028F49E01A80185E60E943A042F
:1009D0006091C2028EEF860F843028F49E01A80138
:1009E00084E60E943A04F801E952FD45EF30F10532
:1009F00008F083C0EC5CFF4F0C942F1F8A81882382
:100A000009F47CC080E005C08A81882309F476C09F
:100A100081E00E94CF056FC08A81882309F46EC0EF
:100A200082E0F7CF8A81882309F468C084E00E94BD
:100A3000A91583E00E94A91586E00E94A91585E00A
:100A40000E9488150E94AF17811102C00E945A1897
:100A50000E94C7179093DA0280688093D902809130
:100A6000D9029091DA020E94D81745C08A81882362
:100A700009F444C085E00E94A9153DC08A818823FD
:100A800081F18091C102813021F41092C102459818
:100A900028C081E08093C102459A23C08A818823BF
:100AA00001F18091C202813021F41092C202449877
:100AB00018C081E08093C202449A13C082E00BC048
:100AC00082E00DC083E007C083E009C084E003C07A
:100AD00084E005C085E08093C10203C085E0809377
:100AE000C2026091C1027091C2028091C3029091D2
:100AF000C4020E94EF1780E001C081E0DF91CF9136
:100B00001F910F91089581E0089508950C94850533
:100B10001F93CF93DF9300D000D01F92CDB7DEB7E5
:100B200049835A836B833091B60189819A8131114F
:100B300014C0662359F0222349F00E947D16182F15
:100B4000682F89819A810E94261603C00E9451163F
:100B5000182F69817A81812F04C00E947D166981D6
:100B60007A810F900F900F900F900F90DF91CF919F
:100B70001F910C94A006FC01262F408151816281B7
:100B8000738184810C948805CF93DF93EC0160E03E
:100B90000E94BB05BE01DF91CF910C948605CF93D7
:100BA000DF9361E070E0EB0102C0CC0FDD1F8A959E
:100BB000E2F78C2F0E94C217BE0180E090E0DF9127
:100BC000CF910C9428158F929F92AF92BF92CF92A3
:100BD000DF92EF92FF920F931F936B017C0181E0F4
:100BE00090E0A0E0B0E04C015D0104C0880C991CCD
:100BF000AA1CBB1C4A95D2F7AC01BD0104C0440F2E
:100C0000551F661F771F2A95D2F7482959296A2947
:100C10007B2904C0880F991FAA1FBB1F0A95D2F712
:100C20008A019B010C211D212E213F2140175107D4
:100C30006207730739F4BC01CD016C297D298E2927
:100C40009F290AC080959095A095B095BC01CD01D3
:100C50006C217D218E219F211F910F91FF90EF909C
:100C6000DF90CF90BF90AF909F908F9008950E949B
:100C7000AF17811102C00E945A180C94F3030C9410
:100C8000F50308950E942F110E9441062FEF84E37F
:100C90009CE0215080409040E1F700C000000C949F
:100CA00012190F931F93CF93DF93EC0161E00E9421
:100CB000BB058C01BE010E94F703882349F1BE01E8
:100CC000C8010E94760A882319F1BE01C8010E945A
:100CD000C80A8823E9F0BE01C8010E94F30B8823EB
:100CE000B9F08A81882369F001158CE5180731F085
:100CF0000F3D1C4531F40E945A180AC00E9442065A
:100D000007C0CE01DF91CF911F910F910C94830505
:100D100080E0DF91CF911F910F910895089581E0B8
:100D200008950C948F06CF93C82F0E94F9038C2F3F
:100D30000E949106CF91089580E090E00895089573
:100D400020E3829FC0011124FC012CE0729FE00D82
:100D5000F11D1124E60FF11DEE0FFF1FEE53FF4FA3
:100D6000859194910895880F991FFC01EE59FC4FCD
:100D7000859194910895CF93DF930E94A0060E94DD
:100D8000D307EC018115904508F041C0C11580E4FE
:100D9000D80708F0D1C0C83ED10510F5C03ED10536
:100DA00008F0FDC0C83AD10578F4C53AD10508F07D
:100DB000A2C0C130D10509F4F2C008F4EEC0C430BD
:100DC000D10508F0ECC0E9C0CF3BD10508F49BC0C9
:100DD000C03CD10508F4E1C0CE01805C91099EC001
:100DE000C11590E2D90758F4C11521E0D20708F0E7
:100DF000D6C0C03FD10508F4D0C0D065D0C0C11561
:100E000080E3D80708F08EC0CE019F7087C0C1155F
:100E100095E5D90708F043C0C11524E5D20708F0CD
:100E2000A2C0C11582E5D80708F5C11591E5D9071B
:100E300008F085C0CE0174E0969587957A95E1F724
:100E400083709C2F937021E030E002C0220F331F8B
:100E50009A95E2F73C68382BCF70C695C69580E22C
:100E6000C89FE0011124C22BD32B99C09E0123708F
:100E700033278C2F86958695C115D34508F064C01D
:100E8000C1E0D0E002C0CC0FDD1F2A95E2F720E2DE
:100E9000829FC0011124C82BD92BDC6880C0C115EA
:100EA00029E5D207A0F4C11588E5D80708F060C08D
:100EB000C11596E5D90708F070C08C2F0E9467080D
:100EC0008F71C82FD0E0DC2FCC27D06268C0C1154D
:100ED0002AE5D20708F451C0CE0190568115904200
:100EE00008F05BC08D2F8F710E946708DD27D062EC
:100EF0008F71D82B54C0C55AD0E0C45ADE4FC88178
:100F0000D0E0D0644CC0C85AD0E0CC0FDD1FC25D29
:100F1000DE4F0990D881C02DD46441C00E94B30631
:100F2000EC013DC0CE019927D3FF03C0EC01D86C82
:100F300036C0EC01D06C33C0DF70D06A30C0DC2F1B
:100F4000CC27C16FD06A2BC0C1E0D0E002C0CC0F6B
:100F5000DD1F2A95E2F720E2829FC0011124C82BF1
:100F6000D92BDA681CC0DC2FCC27C46FD06A17C01D
:100F7000DC2FCC27C06FD06A12C08C2F8F700E94DC
:100F8000670894E0D695C7959A95E1F7CF70D0E0C1
:100F9000DC2FCC27D069C82B02C0C0E0D0E0CE0146
:100FA000DF91CF9108958238910569F1B0F48133D2
:100FB000910509F46DC048F48932910509F463C0C4
:100FC0008A32910509F469C008958533910509F4C1
:100FD00055C089339105B9F00895833E910569F1B3
:100FE00038F4803E9105B1F0823E910509F10895F3
:100FF000863E9105A9F1873E9105B9F1843E9105A0
:1010000009F064C023C02091D90220FD4FC021FD0A
:101010004DC008958091D90280FD44C08091DA02CC
:1010200080FF44C08091D90284FD42C083EE4DC050
:101030008091D90282FF38C0F5CF8091D90282FD1C
:1010400033C08091DA0280FD31C0ECCF8091DA02AA
:1010500081FF32C08091D90284FD2AC087EE35C05D
:101060008091D90283FF26C0F5CF8091D90283FDFC
:1010700021C08091DA0281FD1FC0ECCF8091D9029E
:1010800085FD1CC01DC08091D90285FD19C016C008
:101090008091D90286FD16C017C08091D90286FDC5
:1010A00013C010C089E311C082EE0FC080EE0DC0E6
:1010B00080E00BC086EE09C084EE07C089E205C05F
:1010C00085E303C08AE201C081E390E00895909136
:1010D000D90292FF0DC0282F2871283019F4877F7C
:1010E000846006C0282F2471243011F48B7F88601F
:1010F00093FF0DC0282F2871283119F4877E846151
:1011000006C0282F2471243111F48B7E8861209130
:10111000DA0220FF0DC0382F3871383019F4877F7C
:10112000816006C0382F3171313011F48E7F8860B4
:1011300021FF0DC0282F2871283119F4877E816185
:1011400006C0282F2171213111F48E7E886194FD13
:10115000877E0895E82FF0E0EE0FFF1FE353FD4F69
:10116000808191810895089580EA8A95F1F7089524
:1011700008950C94B8080C94B808F894E82FE295F8
:10118000EF70F0E031A1282F2F7081E090E001C0D6
:10119000880F2A95EAF7982F9095932391A392A10F
:1011A000892B82A3789408950F931F93CF93DF9395
:1011B00084E30E94BD0885E30E94BD0883E30E948A
:1011C000BD0884E90E94BD08CFE5D1E00BE611E03F
:1011D00089910E94BD080C171D07D1F71092C60215
:1011E0001092C5021092CE021092CD021092C80247
:1011F0001092C7021092D0021092CF021092CA022F
:101200001092C9021092D2021092D1021092CC0216
:101210001092CB021092D4021092D30284E00E946A
:10122000A309DF91CF911F910F910C9437067F9204
:101230008F929F92AF92BF92CF92DF92EF92FF92E6
:101240000F931F93CF93DF93CBE6D1E085ECA82ECD
:1012500082E0B82E9DECE92E92E0F92E712C01E08F
:1012600010E06E018881F894E82FE295EF70F0E0CD
:1012700021A18F70A80102C0440F551F8A95E2F783
:10128000CA01922F982B91A392A18095892382A3C2
:1012900078940E94B408EFE5F1E020E030E0812C82
:1012A000912C4191A42FA295AF70B0E090968C91B3
:1012B00090E04F7002C0959587954A95E2F780FDC2
:1012C00008C0C801022E02C0880F991F0A94E2F7D5
:1012D00002C080E090E0882A992A2F5F3F4F2C308F
:1012E0003105F9F62196F60180810E94BD08F501CD
:1012F000808191818816990621F09182808281E017
:1013000001C080E0782AF2E0AF0EB11CEA14FB04C1
:1013100009F0A7CF272D44E06DEC72E085EC92E058
:101320000E94A4090E943F06872DDF91CF911F9153
:101330000F91FF90EF90DF90CF90BF90AF909F9074
:101340008F907F9008950895FF920F931F93CF93EE
:10135000DF93F82E092F162FD72FC42F222349F001
:1013600081E08093A2010E94D1189093A101809303
:10137000A0018091A2018823D9F08091A0019091D1
:10138000A1010E94DD18069798F0EF2DF02FA12FF4
:10139000BD2F80E090E04C2F50E08417950734F487
:1013A000219131912D933D930196F7CF1092A20197
:1013B000DF91CF911F910F91FF900895AF92BF924F
:1013C000CF92DF92EF92FF920F931F93CF93DF9311
:1013D0007C015B01C42FD22FFC0182818823F9F0AC
:1013E0004093A5010E94D1189093A4018093A3017A
:1013F00080E28C0F883008F06EC0C77081E001C0B9
:10140000880FCA95EAF7DF91CF911F910F91FF9056
:10141000EF90DF90CF90BF90AF900C949F0E809193
:10142000A501481335C08091A3019091A4010E94A9
:10143000DD186C01B701C5010E94E813C816D90672
:1014400038F510E21D0FCD17B9F080E28C0F88300F
:1014500040F4C77081E001C0880FCA95EAF70E9486
:10146000A60E183058F581E09D2F977001C0880FA7
:101470009A95EAF70E949F0E802F0E948C0E1830DA
:1014800050F5D77081E001C0880FDA95EAF70AC0FD
:1014900080E28C0F8830F8F4C77081E001C0880FBB
:1014A000CA95EAF7DF91CF911F910F91FF90EF90CE
:1014B000DF90CF90BF90AF900C94A60E802FDF915D
:1014C000CF911F910F91FF90EF90DF90CF90BF9041
:1014D000AF900C948C0EDF91CF911F910F91FF90E4
:1014E000EF90DF90CF90BF90AF9008950F939C0145
:1014F000CB01243F4CE5340731F188F4293DFCE56C
:101500003F07D9F02A3D4CE5340779F1283D3C45A9
:10151000A9F506E221EE41EE68ED7CE52BC0263F01
:10152000FCE53F07E1F0A8F0273F3C4539F507E22D
:1015300025EE46EE67EF7CE51DC007E225EE45EEA1
:1015400069ED7CE517C006E221EE40EE64EF7CE534
:1015500011C007E225EE44EE65EF7CE50BC006E224
:1015600021EE42EE66EF7CE505C008E221E045EEA3
:101570006AED7CE50E94DE0980E008C0FC01828102
:10158000882319F01092A50101C081E00F91089500
:10159000CF93DF93EC01FB018281882309F41FC103
:1015A000C230FCE5DF0708F41BC1C6319CE5D90752
:1015B00038F09E012B5F3C452930310508F010C101
:1015C0000E94C7179093DA028093D902C031ECE5EC
:1015D000DE0709F4C3C008F041C0C8308CE5D80765
:1015E00009F49AC0F0F4C430ECE5DE0709F487C0D2
:1015F00068F4C2308CE5D80709F477C0C330DC4505
:1016000009F0E3C08091D902826076C0C630ECE573
:10161000DE0709F46EC008F07BC08091D9028860B3
:101620006BC0CC308CE5D80709F485C068F4CA30AB
:10163000ECE5DE0709F474C008F079C00E942F11B0
:101640008091D902806858C0CE308CE5D80709F463
:1016500076C008F07FC08091D9028BC0CC3FECE50A
:10166000DE0709F44FC018F5C3318CE5D80709F43B
:101670007DC078F4C131ECE5DE0709F473C0C231F6
:10168000DC4509F0A2C00E942F118091D9028F770A
:1016900033C0C5318CE5D80709F472C008F486C0A0
:1016A000CB3FDC4509F091C08091DA023EC0C11504
:1016B000FDE5DF0709F45FC058F4CE3F9CE5D9078C
:1016C00009F444C008F43FC08091DA0282602DC062
:1016D000C230FDE5DF0709F475C008F45DC0C33012
:1016E000DD4509F072C080E06EC08091D902816052
:1016F00003C08091D90280618093D90266C0809135
:10170000D90211C08091DA0282608093DA025DC052
:101710008091D9028062F0CF8091D9028064ECCFB1
:101720008091D90288608460E7CF8160EECF80919C
:10173000D9028E7FE1CF8091D9028D7FDDCF80915C
:10174000D902877FD9CF8091DA0218C08091DA025E
:101750008D7FDBCF8091D9028F7ECECF8091D90251
:101760008F7DCACF8091D9028F7BC6CF8091D9025D
:10177000877F8B7FC1CF8091DA028D7F8E7FC5CF2F
:101780008091D90282FB222720F991E0922790FBD9
:1017900082F990FB83F9B0CF8091DA02982F90956F
:1017A00091708E7F892B90FB81F9AFCF0E942F1112
:1017B0008091D90287FB222720F991E0922790FBA4
:1017C00087F99ACF81E00E945C188091D9029091AC
:1017D000DA020E94D8170E942F1180E001C081E038
:1017E000DF91CF910895CF93DF9386319C4541F5EA
:1017F000EB010E94FE16982F8A81209104013091FE
:101800000501882379F09A7A81E009F480E08093D9
:10181000A601911102C069E201C065E3C9010E94FD
:10182000A3180AC08091A601811102C069E201C01B
:1018300065E3C9010E94A5180E944C1780E001C011
:1018400081E0DF91CF9108959093AC018093AB013B
:101850000895E091AB01F091AC01309721F0019037
:10186000F081E02D099480E00895E091AB01F091C2
:10187000AC01309721F00280F381E02D09940895A6
:10188000E091AB01F091AC01309721F00480F5813B
:10189000E02D099408952091A9013091AA012817FB
:1018A000390771F09093AA018093A901E091AB01EF
:1018B000F091AC01309721F00680F781E02D09947A
:1018C00008952091A7013091A8012817390771F0D8
:1018D0009093A8018093A701E091AB01F091AC0136
:1018E000309721F00084F185E02D0994089581E07E
:1018F00008950C94770C08950C947B0C0C94FB03C6
:101900000C947B0C0C94800C0C947B0C0E94840C2B
:101910000C94820C0E94C8180E94D4080E942719B7
:101920000C947E0C7F928F929F92AF92BF92CF9237
:10193000DF92EF92FF920F931F93CF93DF93CDB778
:10194000DEB72A970FB6F894DEBF0FBECDBF0E9458
:101950007C0C0E947B0C0E9417090E94790C81115B
:1019600011C08FEF89838A831B820E94D118816006
:10197000782F9D838C8349815A816B818D810E9450
:10198000460D4FC04EEAA42E41E0B42E00E010E018
:10199000702E802F0E94AA086C01F5018190919011
:1019A0005F01882699268114910431F40F5F1F4F3F
:1019B0000430110569F7D5CF8091220281FD0E9484
:1019C000B30880E0EE24E394F12C94012E213F2112
:1019D000232B09F18E837F82CE20DF2081E0CD286A
:1019E00009F480E088870E94D1188160782F9A8757
:1019F00089874E815F8168858A850E94460D000F28
:101A0000111FF801E255FE4F80819181E826F926E9
:101A1000F182E08206C08F5FEE0CFF1C8C30A9F6CD
:101A2000C5CF0E94D61A0E94290C9091AD0189174A
:101A3000C9F00E94290C8093AD012A960FB6F89444
:101A4000DEBF0FBECDBFDF91CF911F910F91FF90F1
:101A5000EF90DF90CF90BF90AF909F908F907F904E
:101A60000C9493062A960FB6F894DEBF0FBECDBF36
:101A7000DF91CF911F910F91FF90EF90DF90CF906A
:101A8000BF90AF909F908F907F900895CF93DF93FA
:101A9000CDB7DEB72B970FB6F894DEBF0FBECDBF24
:101AA0004F83588769877A878B87DE01119686E096
:101AB000FD0111928A95E9F785E0FE0137960190C4
:101AC0000D928A95E1F749815A816B817C818D81E4
:101AD0009E810E94EB132B960FB6F894DEBF0FBECB
:101AE000CDBFDF91CF910895FC01808191810E944B
:101AF000BF160895CF93882309F4A4C0C82F823855
:101B0000C1F40E94290C81FD9DC069E3809104010C
:101B1000909105010E94A3180E944C172FEF81EEAF
:101B200094E0215080409040E1F700C0000069E35C
:101B300019C0833801F50E94290C80FD83C063E53C
:101B400080910401909105010E94A3180E944C17F6
:101B50002FEF81EE94E0215080409040E1F700C0EB
:101B6000000063E580910401909105010E94A51891
:101B7000CF910C944C178438C1F40E94290C82FD3B
:101B800061C067E480910401909105010E94A3184F
:101B90000E944C172FEF81EE94E02150804090403E
:101BA000E1F700C0000067E4DDCF8CEF8C0F813AD5
:101BB000D0F46C2F80910401909105010E946D1862
:101BC000882349F06C2F80910401909105010E94B7
:101BD000A5180E944C176C2F80910401909105016B
:101BE0000E94A318C5CF80E28C0F883048F4C770DC
:101BF00081E001C0880FCA95EAF70E940117B8CFAB
:101C0000EBE5EC0FE33040F4F0E0E356FE4F80816B
:101C100090E0CF910C944B0CE8E5EC0FE73150F4D9
:101C2000F0E0EE0FFF1FE159FE4F80819181CF91CF
:101C30000C94610CC03F30F08C2F0E94CB19CF91D7
:101C40000C94B81ACF910895882309F464C082389F
:101C500079F40E94290C81FF5EC069E38091040140
:101C6000909105010E94A3180E944C1769E310C0CF
:101C70008338B1F40E94290C80FF4DC063E5809148
:101C80000401909105010E94A3180E944C1763E57E
:101C900080910401909105010E94A5180C944C17A5
:101CA000843879F40E94290C82FF35C067E4809162
:101CB0000401909105010E94A3180E944C1767E44B
:101CC000E7CF9CEF980F913A10F4682FE1CF90E2A4
:101CD000980F983050F4877091E001C0990F8A9561
:101CE000EAF7892F0E940717D9CF9BE5980F933009
:101CF00020F480E090E00C944B0C98E5980F97311D
:101D000020F480E090E00C94610C803F20F00E9471
:101D1000331A0C94B81A0895CF93C82F0E947A0DE5
:101D2000C93349F42FEF87EE93E021508040904073
:101D3000E1F700C000008C2FCF910C94240E882373
:101D400021F00E9401170C944C170895882321F06C
:101D50000E9407170C944C170895CF92DF92EF92D0
:101D6000FF920F931F93CF93DF937C01062FC72F12
:101D7000FC01158112951F70D281D1110E941E178E
:101D80000E94F716882399F0DD2389F08C2F807F3D
:101D9000803421F080E2800F883048F082E00E9499
:101DA00096170E94F71691E0D82ED92601C0D12CA3
:101DB000CC2EC2948FE0C8228C2D90E0FC01ED5B0C
:101DC000FF4F0C942F1F8C2F807FCF70882311F032
:101DD000C295C07FDD2399F0CC2309F48DC180E248
:101DE000800F883010F0011104C08C2F0E94011761
:101DF00003C08C2F0E9411170E944C177DC1802FA9
:101E00000E94240ECC2309F49CC180E2800F88300C
:101E100010F0011104C08C2F0E94071703C08C2FF3
:101E20000E9417170E944C178CC18C2F807FCF7097
:101E3000803211F0C295C07F002319F00130C9F043
:101E400022C0DD2371F0112341F0113031F40E94E2
:101E500031178C2B0E94391774C10E9431178C2BBB
:101E60001DC0112319F0113009F46BC10E944217F3
:101E700025C0DD2321F0163008F063C10EC01530F7
:101E800008F05FC11BC0DD2361F0112331F0F701C1
:101E9000858180FF31C18F7085838C2F0E949F0EBA
:101EA00050C1112359F0093309F037C1FFEF27EE74
:101EB00083E0F15020408040E1F72DC18C2F0E943B
:101EC000A60E3FC18C2F86958695837019F08130C0
:101ED00061F037C1DD2321F0802F9C2F937002C069
:101EE00080E090E00E944B0C34C1DD2321F0802F74
:101EF0009C2F937002C080E090E00E94610C29C189
:101F0000802FDD2319F00E94CB1902C00E94331AE2
:101F10000E94B81A1EC18C2F837009F045C0D111E0
:101F200014C1402F429546954770440F440F602FCF
:101F30006F70862F90E0A0E0B0E0042E04C0880F00
:101F4000991FAA1FBB1F0A94D2F704FF10C00FE00D
:101F500010E020E030E004C0000F111F221F331FEB
:101F60004A95D2F7009510952095309503C000E072
:101F700010E09801C695C695C370BC01CD01602BD9
:101F8000712B822B932BC23049F058F4C13019F0D9
:101F90000E943C15DAC00E942A15D7C00E944E1537
:101FA000D4C00E942815D1C0DD2319F08C2F817078
:101FB00001C08695882309F4C8C0402F42954695F4
:101FC0004770440F440F602F6F70862F90E0A0E0A1
:101FD000B0E0042E04C0880F991FAA1FBB1F0A94EB
:101FE000D2F704FF10C00FE010E020E030E004C0A2
:101FF000000F111F221F331F4A95D2F7009510952D
:102000002095309503C000E010E09801C695C69574
:10201000C370BC01CD01602B712B822B932BC2307E
:1020200049F058F4C13019F00E9401168EC00E9488
:10203000EF158BC00E94131688C00E94621585C0E0
:10204000CF70DD2339F08C2F0E948815802F0E94DD
:102050009F0E7BC0802F0E94A60E8C2F0E94A91578
:1020600074C0023F01F128F4003F41F0013FA1F0AC
:102070003FC0033FF9F0043F39F13AC0DD2341F09E
:10208000153008F05EC08C2F8F710E94CE1559C09C
:10209000163008F056C0F7CFDD2339F08C2F8F7142
:1020A0000E9488154EC0DD23C9F38C2F8F710E94CA
:1020B000A91547C0DD2329F08C2F8F710E9473155D
:1020C00040C00E946E153DC0DD2349F0CF718C2FBA
:1020D0000E94881563E08C2F0E94811732C081E036
:1020E0000E949617123068F182E00E94961729C06C
:1020F000DD2331F0112391F2802F0E947A0D21C04F
:10210000112399F2093349F49FEFE7EEF3E0915080
:10211000E040F040E1F700C00000802F0E94240E54
:1021200010C04C2F4F70602FC7010E949C060E9468
:1021300099140FC04C2F4F70602FC7010E949F064B
:1021400008C088EF8C0D843020F40E94290C0E9476
:102150009306DD20C9F00E94F31680FD15C0F7013B
:1021600012820E94ED160E948815C7010E94E51098
:102170000E94ED16DF91CF911F910F91FF90EF908C
:10218000DF90CF900C94A915DF91CF911F910F9103
:10219000FF90EF90DF90CF9008950F931F93CF9310
:1021A000DF93EC01688179818A810E94CA168C01D3
:1021B0000E9425160E941615B801CE010E94AD0E90
:1021C000DF91CF911F910F910895CF93DF93EC0191
:1021D000988189812B813C81232B31F08F3F31F411
:1021E00081E09F3F19F403C081E001C080E080FDE1
:1021F00019C0CE010E94510681110CC00E94F71631
:10220000882381F08A81882369F082E0DF91CF9171
:102210000C949617CE010E94CD10CE01DF91CF9184
:102220000C94C405DF91CF9108950E941E170E945F
:102230002E170E944C170E94E81B0E94B81A80E0DB
:1022400090E00E944B0C80E090E00C94610C809137
:102250000401909105010E94A7180C9415110E9489
:102260000E170C942711E92FE295EF704E2F50E0D6
:10227000FA013297EE30F105B0F4ED5AFF4F0C94AD
:102280002F1F803F91F018F4883E68F40EC0843F01
:1022900051F40BC0883E48F0813F29F406C093FBFF
:1022A000882780F9089580E0089581E008950E94CC
:1022B000BF160E9433110895CF93DF9300D000D052
:1022C0001F92CDB7DEB70F900F900F900F900F9029
:1022D000DF91CF910895CF93DF9300D000D000D04D
:1022E000CDB7DEB726960FB6F894DEBF0FBECDBFD2
:1022F000DF91CF9108951F93CF93DF93C091B701E2
:1023000016E08091B801C81799F0D0E01C9FF00149
:102310001D9FF00D1124E754FE4F408151816281D1
:102320007381848195810E946B112196C770E9CFDA
:10233000DF91CF911F9108954091E9015091EA01F9
:102340006091EB017091EC018091ED019091EE01B3
:102350000C946B110F931F93CF93DF938091EE0139
:1023600082958F7009F05DC08091EB01882309F49C
:1023700058C08091B7011091B8016091E901709146
:10238000EA01C091EC01D091ED0191E06F3F09F0BD
:1023900090E0292F06E0811709F443C0209721F02F
:1023A0007F3F21F030E003C031E001C0322F90E0E8
:1023B00030FD34C0089FF001099FF00D1124DF01AA
:1023C000A754BE4F11963C911197371327C03C91EB
:1023D000361324C012963C91129731111FC01396E8
:1023E0004D915C9114974C1B5D0B483C5105B0F42A
:1023F0008091EE018F7080618093EE01E254FE4F78
:1024000080818F708061808389EE91E00E94E51069
:10241000DF91CF911F910F910C947B1101968770E2
:10242000BACFDF91CF911F910F9108959F92AF92F4
:10243000BF92CF92DF92EF92FF920F931F93CF93B1
:10244000DF93CDB7DEB761970FB6F894DEBF0FBE4E
:10245000CDBF8C0185E0F801DE011D9601900D9243
:102460008A95E1F7F80140815181E2809091E9017C
:102470006091EA012091EC013091ED0121153105C7
:1024800031F06F3F31F481E09F3F19F403C081E0E8
:1024900001C080E0F82FF1709F2E80FD46C1F80149
:1024A000A380B48089EEC82E81E0D82EF090EB0195
:1024B000F501E21BF30BFF2009F4DFC08091EE0170
:1024C000E83CF10508F09BC0282F207F09F052C09E
:1024D000561313C0491311C0FE2CE1100EC08F70AB
:1024E00080618093EE010E949C11C6010E94E5105C
:1024F0008091EE01F801858358C1AB2831F05F3F30
:1025000031F481E04F3F19F403C081E001C080E065
:1025100080FD03C081E08E2502C080E090E0F82FAE
:10252000F170FF2E80FF1CC08091B7012091B8018F
:1025300036E0821709F417C190E0389FF001399F07
:10254000F00D1124E754FE4F6181561306C06081DF
:10255000461303C06281E61203C001968770E9CF7B
:10256000FE2CEE2009F421C18091EE018160809360
:10257000EE015AC0561306C0491304C0E11002C050
:10258000F8019FC04D875E878D859E850E945711FB
:10259000882379F1EE2069F12091EE01822F829556
:1025A0008F7090E0029774F08091E9019091EA01B8
:1025B00098878F831986BB86AA862C87CE010796BB
:1025C0000E94E51086E0F801A9EEB1E001900D92BD
:1025D0008A95E1F70E94AA110E949C110DC056171E
:1025E00029F14D875E878D859E850E945711811147
:1025F0002CC0C8010E94E510FF24F394D6C0282FF8
:10260000207F69F77A2DB98AA88A6E2D89890E9460
:102610005C1189EE91E00E94E51086E0F6011192CE
:102620008A95E9F70E949C11F12CBFC04913D9CFBC
:10263000E110D7CFF8018583C8010E94E51086E03C
:10264000F60111928A95E9F7B0C0EE2091F220913F
:10265000EE01822F82958F7090E002970CF4B2CF3A
:102660008091E9019091EA019A8389831B82BD825E
:10267000AC822E83CE010196A3CFE83CF10508F091
:1026800047C0FE2CEE2009F4B4CF561330C04913D6
:102690002EC02091EE0120FD21C0822F82958F70E7
:1026A000482F50E041155105C9F0F80125834F30FE
:1026B000510541F08F5F982F9295907F822F8F70F8
:1026C000892B8583C8010E94E51086E0F801A9EEF8
:1026D000B1E001900D928A95E1F742C086E0F801E1
:1026E000A9EEB1E001900D928A95E1F75EC04D87A9
:1026F0005E878D859E850E945711811163CF8091E1
:10270000EE0181608093EE01C8010E94E5104DC08A
:102710007A2DB98AA88A6E2D89890E945C1186E07B
:10272000F60111928A95E9F71BC0EE2009F461CFFA
:102730004D875E878D859E850E945711F82E8823D0
:1027400009F457CF86E0F801A9EEB1E001900D92AF
:102750008A95E1F789EE91E00E94740D0E94AA111A
:102760000E949C1122C04D875E878D859E850E94A8
:10277000BF16292F22952F70223028F49F7039F030
:10278000811105C00BC0243028F49F7049F4805E8D
:10279000883020F0C8010E94E5109F2CF92C05C05C
:1027A000F8019581907F99F7F9CF8F2D61960FB63B
:1027B000F894DEBF0FBECDBFDF91CF911F910F9177
:1027C000FF90EF90DF90CF90BF90AF909F900895D3
:1027D00088EC90E008951F93CF93DF93CDB7DEB7D9
:1027E0002C970FB6F894DEBF0FBECDBF4F8358872E
:1027F00069877A878B879C87CE0107960E9416127D
:102800008823D1F09F8188852A853B85232B31F051
:102810008F3F31F481E09F3F19F403C081E001C094
:1028200080E080FD47C04F81588569857A858B851A
:102830009C850E946B113EC086E0FE013796DE014A
:10284000119601900D928A95E1F7FF81E8856A85DE
:102850007B856115710531F0EF3F31F481E0FF3F79
:1028600019F403C081E001C080E080FD23C0209105
:10287000B80130E0C9010196877099274091B701EE
:1028800050E084179507F1F1F983EA837D836C8327
:1028900096E0929FD001939FB00D1124A754BE4F94
:1028A000FE01319601900D929A95E1F78093B8015F
:1028B0000E947B1116E08091B7019091B8018917B1
:1028C00071F1189FC001112487549E4F0E94161267
:1028D000882329F1E091B7011E9FF0011124E754EC
:1028E000FE4F4081518162817381848195810E9474
:1028F0006B118091B70190E00196877099278093C2
:10290000B701D9CF0E942F111092B8011092B701D0
:10291000E9EEF1E086E0DF011D928A95E9F72C9659
:102920000FB6F894DEBF0FBECDBFDF91CF911F91E0
:102930000895EF92FF920F931F93CF93DF938C0133
:10294000892B09F46CC0F12CEE24E394E801219664
:10295000F8018491843740F4843008F051C081300C
:1029600081F0823019F15BC0853709F444C0A8F1C9
:102970009CE7980F903708F052C08F770E94240E82
:1029800041C00E5F1F4FFE01849190E2980F983076
:1029900050F48770FE2D01C0FF0F8A95EAF78F2F44
:1029A0000E94211714C00E947A0D2DC00E5F1F4F88
:1029B000FE01849190E2980F983060F48770FE2DAC
:1029C00001C0FF0F8A95EAF78F2F0E9427170E94F8
:1029D0004C1719C00E94240E16C00E5F1F4FFE0137
:1029E000C491CC2381F08FE99FE00197F1F700C0FB
:1029F0000000C150F6CF0E5F1F4FFE01F49003C0E0
:102A00000E947A0D8E018F2D882309F49FCFEFE964
:102A1000FFE03197F1F700C000008150F5CFDF9162
:102A2000CF911F910F91FF90EF9008950895089511
:102A30000C9417150C9418150E941A156093110226
:102A40007093120280931302909314020C94151148
:102A50000C941C150F931F930091110210911202F8
:102A60002091130230911402602B712B822B932B37
:102A70001F910F910C941C150F931F93009111023D
:102A800010911202209113023091140260237123DD
:102A9000822393231F910F910C941C150F931F9366
:102AA0000091110210911202209113023091140230
:102AB00060277127822793271F910F910C941C1573
:102AC0000C9432040E94601560930D0270930E0204
:102AD00080930F02909310020C94151160E070E047
:102AE000CB010C9462150F931F9341E050E060E01E
:102AF00070E08A019B0104C0000F111F221F331FC9
:102B00008A95D2F7C901B8011F910F910C946215F3
:102B10000F931F9341E050E060E070E004C0440F69
:102B2000551F661F771F8A95D2F780910D029091ED
:102B30000E02A0910F02B09110028A019B01082B96
:102B4000192B2A2B3B2BC901B8011F910F910C9413
:102B500062150F931F9341E050E060E070E004C005
:102B6000440F551F661F771F8A95D2F740955095E1
:102B70006095709580910D0290910E02A0910F02C8
:102B8000B09110028A019B01082319232A233B23B9
:102B9000C901B8011F910F910C9462150F931F93F7
:102BA00041E050E060E070E004C0440F551F661F34
:102BB000771F8A95D2F780910D0290910E02A09115
:102BC0000F02B09110028A019B01082719272A27BA
:102BD0003B27C901B8011F910F910C9462150F9307
:102BE0001F9300910D0210910E0220910F0230915F
:102BF0001002602B712B822B932B1F910F910C9441
:102C000062150F931F9300910D0210910E022091F7
:102C10000F023091100260237123822393231F91AE
:102C20000F910C9462150F931F9300910D02109158
:102C30000E0220910F023091100260277127822727
:102C400093271F910F910C94621508952CE0929F89
:102C5000800D1124E82FE695E695E695877051E002
:102C600001C0550F8A95EAF785E0E89FF00111242D
:102C7000E151FE4F20E030E070E04081CB01022EB8
:102C800002C0969587950A94E2F781708195842712
:102C90008523842781932F5F3F4F2530310569F7C6
:102CA00008952CE0929F800D1124682F66956695FB
:102CB0006695982F977085E0689FB001112440E0D9
:102CC00050E080E0FB01E40FF51FE151FE4F208151
:102CD00030E0092E02C0369527950A94E2F721705C
:102CE0003327042E01C0220F0A94EAF7822B4F5F8C
:102CF0005F4F4530510531F70895BF92CF92DF9273
:102D0000EF92FF920F931F93CF93DF938C01C090AC
:102D10000D02D0900E02E0900F02F0901002809110
:102D2000110290911202A0911302B0911402C82ACC
:102D3000D92AEA2AFB2ACFE1D0E0D701C6010C2E1E
:102D400004C0B695A795979587950A94D2F780FD0C
:102D500004C0219790F7B12C07C0BC2EB8018C2F6E
:102D60000E94BB060197A9F38B2DDF91CF911F9194
:102D70000F91FF90EF90DF90CF90BF900895CF9389
:102D8000DF93EC010E947D16BE010E94BB06DF911D
:102D9000CF9108951F93CF93DF93EB019091B601EC
:102DA000992321F0CB010E94BF1613C0882349F05C
:102DB000CB010E947D16182F682FCE010E94261687
:102DC00004C0CB010E945116182FBE01812F0E9412
:102DD000BB06DF91CF911F910895809115028595D3
:102DE0008595859508958091150287700895909135
:102DF0001502977081E009F480E008958091210226
:102E0000089590912102892B809321020895809545
:102E1000909121028923809321020895109221022A
:102E2000089590912002892B809320020895809527
:102E3000909120028923809320020895109220020D
:102E4000089590911F02892B80931F020895809509
:102E500090911F02892380931F02089510921F02F0
:102E6000089580911602089508950C9434170C94D7
:102E7000351790911602981721F0809316020C9442
:102E80003717089580911602882329F010921602B0
:102E900080E00C9437170895E0910401F09105014A
:102EA000809121028083E0910401F09105019081DD
:102EB00080912002892B8083E0910401F09105012B
:102EC000908180911F02892B808380911602882334
:102ED00081F0E0910401F09105019081892B8083BC
:102EE00080910401909105010E94611881110E9456
:102EF000421780910401909105010C94350C0C94BB
:102F0000341798E0899F90011124262B20931502F5
:102F10000E948815809115028595859585950C945C
:102F20007F171092150280E00C947F1720911502F4
:102F30008095822380931502982F977079F430E062
:102F4000482F082E000C550B2417350739F08595AE
:102F5000859585950E94A9150C949117089580E098
:102F600090E00E94B31F21E08C3E9E4F09F020E0CC
:102F7000822F089582E090E00C94A51F83E090E0FA
:102F80000C94A51F682F83E090E00C94B91FCF9399
:102F900084E090E00E94A51FC82F81E290E00E948B
:102FA000A51F2C2F30E0A901582BCA01CF910895FD
:102FB000CF93C92F682F84E090E00E94B91F6C2F37
:102FC00081E290E0CF910C94B91FAB01BC018FE07E
:102FD00090E00C94CB1F83E190E00C94AD1FAB010B
:102FE000BC0183E190E00C94CB1F60E070E0CB016A
:102FF0000E94E5170C9410046CEE7EEF80E090E0E8
:103000000E94D71F60E082E090E00E94B91F60E05C
:1030100083E090E00E94B91F1092110210921202F8
:10302000109213021092140260E084E090E00E947B
:10303000B91F60E081E290E00E94B91F60E085E086
:1030400090E00E94B91F60E086E090E00E94B91F06
:103050006FEF87E090E00E94B91F40E050E0BA01B6
:1030600088E090E00E94CB1F60E08DE090E00E943D
:10307000B91F40E050E0BA0188E190E00E94CB1F08
:1030800060E087E190E00E94B91F40E050E0BA01A3
:103090008CE190E00E94CB1F60E080E290E00E9413
:1030A000B91F40E050E0BA0188E190E00E94CB1FD8
:1030B0000C94F5170C94FC17682F8EE090E00C949C
:1030C000B91FFC01329697E080E0915029F02191E0
:1030D0002223D9F38F5FF9CF0895662349F0FC01CD
:1030E000329608962191621729F0E817F907D1F76F
:1030F00080E0089581E008959C01FC0132969FEFE5
:1031000080E04191461789F09F3F19F4411101C0B9
:10311000982F8F5F8630A9F79F3F39F0F901E90FAB
:10312000F11D97FDFA956283089508959C012A5F29
:103130003F4FFC014281461301C012820196821763
:103140009307B9F708950C947C180C94961802967E
:1031500026E0FC0111922A95E9F7089508950C9450
:10316000AE180C94AE18CF930E94B1180E941709A4
:103170000E94AF18C0E08C2F0E94AA08892B29F466
:10318000CF5FC430C1F780E001C081E0CF910895E6
:1031900082E084BD93E095BD9AEF97BD80936E0069
:1031A00008952FB7F8948091D5029091D602A091FE
:1031B000D702B091D8022FBF08959C014FB7F89461
:1031C0008091D5029091D602A091D702B091D802F9
:1031D0004FBF821B930B089578941F920F920FB6E6
:1031E0000F9211248F939F93AF93BF938091D50239
:1031F0009091D602A091D702B091D8020196A11D5C
:10320000B11D8093D5029093D602A093D702B093BC
:10321000D802BF91AF919F918F910F900FBE0F90E9
:103220001F90189598E088E10FB6F894A8958093C0
:1032300060000FBE90936000A895F894D8E0CEEFA0
:1032400028E3299320E0299314BEFFCF08950E941C
:10325000AF17811102C00E945A180E94BA178093BA
:1032600022020E94C7179093DA028093D9020E942B
:10327000BE17682F70E080E090E00E9428156091F2
:103280000D0270910E0280910F02909110020C9429
:1032900060158091290280FF0BC060910B0185E0D1
:1032A000689FB001112475956795759567952BC03A
:1032B00081FF09C060910B0185E0689FB001112476
:1032C0007595679520C082FF07C060910B0185E06E
:1032D000689FB001112417C0909128029923D1F062
:1032E00060910A01961788F720910B0185E0289FCD
:1032F00090011124929FA001939F500D112470E022
:10330000CA010E941B1F6038710540F461157105E8
:1033100019F406C065E070E0862F08958FE70895E0
:1033200081E008958091290280FF08C06091070123
:1033300070E0759567957595679521C081FF06C00A
:103340006091070170E07595679519C082FF04C010
:103350006091070170E010C090912702992399F0C5
:10336000609106019617A0F780910701899FC0011F
:10337000112470E00E941B1F6038710540F4611534
:10338000710519F406C061E070E0862F08958FE79B
:10339000089581E00895803F21F40E9449198195A4
:1033A00004C0813F29F40E94491980932C0208959A
:1033B000823F21F40E944919819504C0833F29F47A
:1033C0000E94491980932B020895893F19F40E94A5
:1033D000921905C08A3F31F40E9492198195809319
:1033E0002D0208958B3F21F40E949219819504C00B
:1033F0008C3F29F40E94921980932E020895843FF5
:1034000021F480912A02816017C0853F21F48091C8
:103410002A02826011C0863F21F480912A028460D2
:103420000BC0873F21F480912A02886005C0883F45
:1034300031F480912A02806180932A0208958D3FA1
:1034400021F48091290281600BC08E3F21F480918C
:103450002902826005C08F3F29F48091290284608F
:10346000809329020895803F39F480912C0287FFD0
:103470006AC010922C0267C0813F29F480912C020F
:103480001816BCF360C090912B02823F29F497FF7D
:103490005AC010922B0257C0833F19F41916CCF36F
:1034A00052C090912D02893F31F419160CF04BC097
:1034B00010922D0248C08A3F19F497FF44C0F8CFFC
:1034C0008B3F39F480912E0287FF3DC010922E026F
:1034D0003AC08C3F29F480912E021816BCF333C0F9
:1034E000843F21F480912A028E7F17C0853F21F40A
:1034F00080912A028D7F11C0863F21F480912A029B
:103500008B7F0BC0873F21F480912A02877F05C003
:10351000883F31F480912A028F7E80932A0213C063
:103520008D3F21F4809129028E7F0BC08E3F21F4C4
:10353000809129028D7F05C08F3F29F48091290257
:103540008B7F8093290280912B02811106C080918C
:103550002C02811102C01092280280912D0281114B
:1035600006C080912E02811102C010922702089598
:103570000E94D11820912B02211104C020912C020D
:10358000222321F0909326028093250220912D0280
:10359000211104C020912E02222321F090932402B5
:1035A000809323028AE292E00C94400CEF92FF9207
:1035B0000F931F93CF93DF9300D000D01F92CDB70E
:1035C000DEB785E0EAE2F2E0DE01119601900D92AD
:1035D0008A95E1F7E0902B02F0902C0200912D02E9
:1035E00010912E0210922B0210922C0210922D029A
:1035F00010922E02E11003C0FF2009F45DC08091FB
:103600002502909126020E94DD18AC0190912802BB
:10361000992339F020910C0130E02417350758F038
:103620004BC020910D018AE0289F9001112424179E
:10363000350718F041C09F3F19F09F5F9093280213
:10364000EE2061F00E9449191E1414F09FEF01C092
:1036500091E0989F902D112490932B02FF2061F010
:103660000E9449191F1414F09FEF01C091E0989F28
:10367000902D112490932C0230912B023323E1F0F2
:1036800020912C022223C1F045EB3403C001112408
:10369000992319F090932B0203C081E080932B02B1
:1036A00035EB2303C0011124992319F090932C02C8
:1036B00003C081E080932C02011103C0112309F49F
:1036C0005DC080912302909124020E94DD18AC011C
:1036D00090912702992339F02091080130E02417B6
:1036E000350758F04BC0209109018AE0289F9001CE
:1036F00011242417350718F041C09F3F19F09F5F30
:1037000090932702002361F00E949219101614F082
:103710009FEF01C091E0989F902D112490932D026E
:10372000112361F00E949219111614F09FEF01C04D
:1037300091E0989F902D112490932E0230912D02AC
:103740003323E1F020912E022223C1F045EB340314
:10375000C0011124992319F090932D0203C081E038
:1037600080932D0235EB2303C0011124992319F016
:1037700090932E0203C081E080932E0280912B0251
:1037800081110BC080912C02811107C080912D0204
:10379000811103C080912E0281110E94B81AEA8221
:1037A000FB820C831D8385E0FE013196AAE2B2E024
:1037B00001900D928A95E1F70F900F900F900F9066
:1037C0000F90DF91CF911F910F91FF90EF9008958F
:1037D000EAE2F2E085E0DF011D928A95E9F71092B6
:1037E0002802109227021092290208950F931F9326
:1037F000CF93DF930E94D1188C0190E080E80FB640
:10380000F89480936100909361000FBE0E94860C33
:103810000E941C1D0E94240C0E94001F539A80E0ED
:10382000815041F0A895EFE9FFE03197F1F700C032
:103830000000F6CF53987894FFEF20E732E0F15084
:1038400020403040E1F700C000000E948A0CC0E038
:10385000DCE080910203882331F0109202030E9481
:10386000D1188C0107C0C8010E94DD180697A8F482
:10387000C11113C00E94091E80910803882329F0FA
:103880008091E60284FD0E94920C0E94C31C0E945B
:103890007C0C0E947B0CC0E0DCCF0E94B31881112D
:1038A00002C0C1E0D6CFF8949AB15B9A892F8C60A0
:1038B0008AB98BB18D278BB98FE7E8E3F1E08150AE
:1038C000E040F040E1F700C000008BB18D278BB9DC
:1038D0009AB95B987894E5CF8091C0020895CF9310
:1038E000DF9300D01F92CDB7DEB7909131029813CD
:1038F00007C020912F02309130022617370791F030
:10390000809331027093300260932F0289837B830E
:103910006A8380911F0384FF05C063E0CE01019696
:103920000E94051E0F900F900F90DF91CF91089588
:10393000BC0184E00C946F1CBC0183E00C946F1CF0
:10394000CF93DF9300D000D000D0CDB7DEB7FC011D
:1039500082E0898395E0DE01129601900D929A959E
:10396000E1F780911F0384FF05C066E0CE01019658
:103970000E94051E26960FB6F894DEBF0FBECDBF7F
:10398000DF91CF910895CF93DF93CAE0D0E080918B
:10399000E60284FF18C080913D0290913E02981784
:1039A000E1F028E0829FC001112468E0815C9D4F16
:1039B0000E94011E80913D0290E001968F70992730
:1039C00080933D020AC00E94091E8FE99FE0019783
:1039D000F1F700C000002197D1F6DF91CF91089553
:1039E000CF93DF93EC01A0913E02B0E0CD010196B0
:1039F0008F70992720913D02281779F093E0AA0F44
:103A0000BB1F9A95E1F7A15CBD4F98E0FE010190C4
:103A10000D929A95E1F780933E020E94091E0E9442
:103A2000C31C88E0FE01A5E3B2E001900D928A95E7
:103A3000E1F7DF91CF9108958EE091E00895FC01C8
:103A4000808180768032A1F58181813061F484812A
:103A50009581892B69F585E392E090930403809327
:103A6000030388E00895823041F48FEB92E0909355
:103A700004038093030381E008958A3021F4838155
:103A80008093BF0215C0893099F48281938181159A
:103A9000924081F484819581892B61F481E0809347
:103AA000340286819781909333028093320202C060
:103AB00080E008958FEF0895209132023091330213
:103AC000232B71F020913402213051F4FC018081CC
:103AD0008093C002109233021092320281E0089566
:103AE0008FEF08950895FC0193819330D9F068F425
:103AF000913081F0923009F060C082E693E09093BB
:103B00000403809303038BE30895913281F1923291
:103B1000F1F153C08DE993E0909304038093030384
:103B200082E108958281813061F040F0823089F035
:103B3000833009F042C08FEA93E013C08BED93E02D
:103B400010C083EC93E0909304038093030386E119
:103B5000089585EB93E090930403809303038CE036
:103B60000895909304038093030384E00895828171
:103B7000882329F0813009F58DE893E002C084E7BD
:103B800093E0909304038093030389E00895848174
:103B90009581009751F0019781F48FED93E0909318
:103BA00004038093030381E8089580E694E09093F2
:103BB00004038093030380E4089580E008951F9335
:103BC000CF93DF93162FEA01288124FF05C03981A6
:103BD00028E82327298302C02AE52883212FFC0116
:103BE000CE010296DC0131913D9321501216DCF397
:103BF000612F0E94AE021C5F1883DF91CF911F914D
:103C0000089546EE52E00C94DF1D4FE153E00C9412
:103C1000DF1DCF93DF9360910503635067FD93C071
:103C200080910103CCE0D0E0C81BD109C75FDC4F15
:103C300080910003803120F4CE010E94721D81C06A
:103C40008D3209F06EC0683009F07BC083EC809340
:103C5000DB028AE5809319011092FF028881807649
:103C600021F0CE010E941F1D49C09A811092E402EA
:103C70008981811106C01092E50224EE32E082E0D3
:103C800038C0853019F49093060330C08630A1F413
:103C90008B81813041F0823031F0833021F08132EC
:103CA00011F0823221F4CE010E94731D01C080E028
:103CB00090E49093FF0222C0883089F0893019F493
:103CC0009093080313C08A3069F08B3079F48BE449
:103CD0008093E702809320038093F30207C028E0DB
:103CE00033E002C024EE32E081E003C024EE32E093
:103CF00080E0309304032093030309C08F3F39F41D
:103D0000988197FD8E8190E89093FF0207C09F8174
:103D1000911104C09E81981708F4892F809318018F
:103D200010C08091FF0287FF0CC0CE010E945C1D75
:103D30008F3F21F48EE18093190103C0811110920D
:103D40001801109205038091190184FF4CC08091E5
:103D500018018F3F09F447C0C82F893008F0C8E028
:103D60008C1B809318019091DB0288E8892780934F
:103D7000DB02CC2359F1809103039091040320913D
:103D8000FF0226FF12C0ABEDB2E02C2FAC014B5D61
:103D90005240FA01EA0FFB1FE4911196EC93119740
:103DA000215011962111F5CF08C0ECEDF2E0DC01B5
:103DB0002C2F3D9131932150E1F701962FEF2C0FDD
:103DC000820F911D90930403809303036C2F8CED5D
:103DD00092E00E94AE02CC5FCC3019F08FEF80935E
:103DE0001801C093190184E199B19C7031F481509C
:103DF000D9F7109206031092FE02DF91CF91089539
:103E0000CF93DF93E9E6F0E0808188608083E99AD0
:103E1000C6EED2E08BE48983AFE1B3E011968C93D8
:103E20001197E2EFF2E081838AE588838C938083A7
:103E3000DF91CF91089597FB072E16F4009407D0D9
:103E400077FD09D00E94351F07FC05D03EF4909500
:103E500081959F4F0895709561957F4F0895EE0F5E
:103E6000FF1F0590F491E02D0994AA1BBB1B51E1A3
:103E700007C0AA1FBB1FA617B70710F0A61BB70BDA
:103E8000881F991F5A95A9F780959095BC01CD017F
:103E900008958F929F92AF92BF92CF92DF92EF924E
:103EA000FF92CF93DF93EC01688179818A819B81B6
:103EB000611571058105910521F464E279ED8BE5C9
:103EC00097E02DE133EF41E050E00E94ED1F490102
:103ED0005A019B01AC01A7EAB1E40E940C206B01DE
:103EE0007C01ACEEB4EFA50194010E941A20DC0124
:103EF000CB018C0D9D1DAE1DBF1DB7FF03C00197EB
:103F0000A109B04888839983AA83BB839F77DF91F7
:103F1000CF91FF90EF90DF90CF90BF90AF909F90A8
:103F20008F9008950E94491F089580E091E00E94BB
:103F3000491F0895A0E0B0E0809300019093010133
:103F4000A0930201B09303010895F999FECF92BDA9
:103F500081BDF89A992780B50895A6E1B0E044E0C4
:103F600050E00C94DF1FA8E1B0E042E050E00C9478
:103F7000DF1F262FF999FECF92BD81BDF89A0197D8
:103F800000B4021639F01FBA20BD0FB6F894FA9AA1
:103F9000F99A0FBE08950396272F0E94BA1F0E9418
:103FA000B91F252F0E94BA1F242F0C94BA1F019607
:103FB000272F0E94BA1F0C94B91FDC01CB01FC0112
:103FC000F999FECF06C0F2BDE1BDF89A319600B472
:103FD0000D9241505040B8F70895052E97FB1EF4FE
:103FE00000940E94042057FD07D00E941F2007FC68
:103FF00003D04EF40C9404205095409530952195B3
:104000003F4F4F4F5F4F0895909580957095619504
:104010007F4F8F4F9F4F08950E944120A59F900D85
:10402000B49F900DA49F800D911D11240895B7FF9A
:104030000C940C200E940C20821B930B0895A1E28B
:104040001A2EAA1BBB1BFD010DC0AA1FBB1FEE1F12
:10405000FF1FA217B307E407F50720F0A21BB30B5D
:10406000E40BF50B661F771F881F991F1A9469F7D9
:1040700060957095809590959B01AC01BD01CF0135
:104080000895A29FB001B39FC001A39F700D811D31
:104090001124911DB29F700D811D1124911D089551
:0440A000F894FFCFC2
:1040A4000100000017022808641E140A321E6C1C4A
:1040B400F01CA01C9C1C981CFF5AE000E400E200C9
:1040C400E600E100E500E300E70003510451E200EB
:1040D400E900EA00B500B600B700CD008301CC00CA
:1040E4008A0192019401210223022402250226025C
:1040F40027022A02B300B4006F007000818283306B
:10410400979695323160616263919034353394E2CD
:1041140000E900EA00B500B600B700CD008301CC89
:10412400008A01920194012102230224022502261D
:104134000227022A02B300B4006F00700081828358
:107000006BC00000AAC000008EC000008CC0000051
:107010008AC0000088C0000086C0000084C0000054
:1070200082C0000080C000007EC000007CC0000064
:107030007AC0000078C0000076C0000074C0000074
:1070400072C0000070C000006EC000006CC0000084
:107050006AC0000068C0000066C0000064C0000094
:1070600062C0000060C00000EC2DFD2DB7B6B0FC82
:10707000FDCF27BFE895B7B6B0FCFDCF21E1B7B68D
:10708000B6FCF4CF08950902120001010080320914
:10709000040000000000000012011001FF000008C1
:1070A000C016DC050201010200010E035500530069
:1070B00042006100730070001C03770077007700C6
:1070C0002E00660069007300630068006C002E00EB
:1070D000640065000403090411241FBECFEFD8E04B
:1070E000DEBFCDBF24B7D8E0CEEF39913833399128
:1070F00009F03FEF30933E0120933D0111E0A0E005
:10710000B1E0E8E9F8E702C005900D92A630B107BA
:10711000D9F721E0A6E0B1E001C01D92AD33B2077E
:10712000E1F77DD1B7C36CCFA82FB92F80E090E0F5
:1071300041E050EA609530E009C02D918227979593
:10714000879510F084279527305EC8F36F5FA8F30A
:107150000895EADF8D939D930895CF93CFB7CF9392
:10716000DF93C3954B9BE9F74B9B0BC04B9B09C02F
:107170004B9B07C04B9B05C04B9B03C04B9B01C067
:1071800089C06F93C0912001DD27C95DDE4F2F9329
:1071900065E54B9B03C02F916F91E6CF0F931F9333
:1071A0004F9320E040E15F9309B10C7003FB27F996
:1071B0003F9350E03BE039C01C7040642F77012FB3
:1071C0005F5F1EC0406819B11C702F7752501FC0FE
:1071D000406409B12F770C70D1F15F5F00C023C00C
:1071E000406219B12F771C7091F15F5F00C025C01C
:1071F0000C701027515012F45D5F0000115027955C
:107200002C3F19B1C8F61C700127015027952C3F5F
:10721000C8F64227499309B10C7010274F731150DB
:1072200027952C3FA8F64695469519B11C7079F024
:107230000127015027952C3F98F66B5A60F3315087
:1072400009B1B0F600C011E01CBB002717C03B50CD
:107250003195C31BD04011E01CBB0881033CF9F001
:107260000B34E9F020911E011981110F1213EDCF9B
:10727000093651F10D3211F0013E39F70093250125
:107280003F915F914F911F910F912F916F91CCB3CF
:10729000C0FD67CFDF91CF91CFBFCF9118952091DF
:1072A0002501222369F310912301112339F534308C
:1072B0003AF13093230120931F01109120013BE00C
:1072C000311B309320011CC0009123010130B4F424
:1072D0000AE53091010134FD14C000930101C3E1BE
:1072E000D1E013C0052710E000C000000BB91AC0A0
:1072F000052710E0221F1DC010E021C04AE502C092
:1073000032ED432FC4E1D0E032E01AB11C605B9A49
:107310000BB11AB95CE020E865E320FF05270BB943
:10732000279517951C3FF0F66695B8F7B1F720FF43
:1073300005270BB9279517951C3FD0F6279517956C
:1073400017FF052700001C3F0BB9B0F629913A95AD
:1073500019F7037F10912401110FC651D0400BB9CA
:1073600011F010931E0111E01CBB08601AB1137FCD
:10737000402F437F54E05A95F1F70BB91AB94BB936
:107380007FCFDC0113963C911397932F1496EC91C9
:1073900014978E2F12962C911297203331F4E370AC
:1073A000F0E0EE5FFE4F80810895283529F4311119
:1073B0000EC0E1E0F0E006C0203599F431110CC0B8
:1073C000E0E0F0E089E08093570084910895383040
:1073D00021F5E3E0F0E0F6CF3830F9F4E2E0F0E058
:1073E000F1CF203221F4FC01EE0FFF1F06C028323E
:1073F00031F4FC01EE0FFF1F319684910895203A7D
:1074000009F432C2203C21F415966C9135D205C0A6
:107410002F3F19F481EF8093110180E008951AB88D
:1074200080E28BB981E085BF82E085BFE0E0F1E7D3
:10743000A89531978040E1F780913D01877F21F445
:1074400080913E01882381F04D9B0EC0F894539AA1
:107450001BB81DBA1092690081E085BF15BEE0918E
:107460000A01F0910B0109958EEF8093110114BE72
:107470000FB6F894A89580916000886180936000B1
:10748000109260000FBE8091690082608093690055
:10749000E89A539A8CE0E0E0F5E3A89531978040B4
:1074A000E1F75398789410912301135017FD46C1CA
:1074B00080912001CCE0D0E0C81BD109C95DDE4F2E
:1074C00080911F018D3209F0BAC0183009F034C123
:1074D00083EC809313018AE58093010110921201DD
:1074E0003881932F907689819923D1F146E051E03C
:1074F0005093220140932101833031F4CE0141DFCA
:107500008093090194E091C0853009F48DC08A30E0
:1075100009F48AC09CEF980F9630B0F44A815B81E1
:107520005093100140930F01893009F49BC19E8153
:1075300090930E012D81227020930D0180930C01F8
:1075400037FD6EC09FEF6CC0823021F48091110135
:107550008E7F03C08091110181608093110182C1EF
:107560009A8110921C01811106C010921D012CE11C
:1075700031E092E050C0853019F4909324013DC071
:107580008630A9F58B81813019F488E990E704C031
:10759000823041F486E890E79093220180932101A4
:1075A00092E121C08330F1F4911108C084ED90E79D
:1075B000909322018093210194E015C0913041F411
:1075C00088EB90E790932201809321019CE10BC00E
:1075D000923041F48AEA90E790932201809321014E
:1075E0009EE001C090E080E4809312011EC08830CC
:1075F00079F0893031F4909326012CE131E090E06C
:107600000AC091E08A3009F090E02CE131E003C03B
:1076100026E231E091E0309322012093210105C060
:1076200080E88093120108C091E08F81811104C02D
:107630008E81891708F4982F909300017DC0809166
:10764000120187FF79C080910E01811708F4182F6D
:10765000811B80930E01FF24F3948111F12C00E033
:10766000011708F066C020910C0180910F019091E4
:107670001001273080F06E012FEFC21AD20A688104
:107680009C012F5F3F4F3093100120930F01F4D0E6
:107690000F5FE601E5CF8115904708F04BC00E5F04
:1076A000F894E0910F01F09110012991399181E056
:1076B000090180935700E8951124789480910F0177
:1076C0009091100102969093100180930F018F7793
:1076D0009927892B59F0FF2009F4C2CF011708F42C
:1076E000BFCF80910D01882309F4BACFF894E091BF
:1076F0000F01F0911001329783E080935700E895D5
:10770000789407B600FCFDCFF894E0910F01F0915A
:107710001001329785E080935700E895789407B67A
:1077200000FCFDCFF89481E180935700E8957894B0
:1077300097CFF11010920001109223018091010166
:1077400084FF6CC0809100018F3F09F467C0C82F8F
:10775000893008F0C8E08C1B8093000190911301E0
:1077600088E8892780931301CC2309F44BC08091CA
:10777000120187FF29C080910E018C1708F4C82FD1
:107780008C1B80930E01D0910C0104E111E084E187
:1077900091E0202F281B2C17A8F5E0900F01F09006
:1077A0001001D73018F0C7015FD002C0F7018491F3
:1077B000F80180830F5F1F4FFFEFEF1AFF0AF0926F
:1077C0001001E0920F01E3CF2091210140912201AD
:1077D0003C2F320FA4E1B1E086FF08C0E22FF42F66
:1077E00084918D9331963E13FBCF08C0822F942F46
:1077F000FC0181918D93CF013E13FACFF0932201CA
:10780000E09321016C2F84E191E0A3DCCC5FCC30CC
:1078100019F08FEF80930001C093010184E199B1C9
:107820009C7031F48150D9F71092240110921E01FE
:1078300080911101803130F04D9B0FC0809111017A
:10784000805109C04D9909C080911101823028F002
:107850008091110182508093110180911101811159
:1078600022CEF4CD90E0E1CEF999FECF92BD81BD5C
:10787000F89A992780B50895262FF999FECF1FBA57
:1078800092BD81BD20BD0FB6F894FA9AF99A0FBE49
:0878900001960895F894FFCF62
:06789800FF5A1E950F00CF
:040000030000700089
:00000001FF
